:0A053C003F065B4F666D7D077F6F81
:0B053100EF1FAC0670011E4C70F6229C
:100394007D01ED14B4080050759003AB75F003A40F
:1003A400C58325F0C583730203C30203CE0203D9B8
:1003B4000203E40203EF0203FA020405020409C281
:1003C400A2C2A3C2A4850E808044D2A2C2A3C2A4A6
:1003D400850D808039C2A2D2A3C2A4850C80802E50
:1003E400D2A2D2A3C2A4850B808023C2A2C2A3D26C
:1003F400A4850A808018D2A2C2A3D2A485098080D1
:100404000DC2A28002D2A2D2A3D2A4E4F5807F645A
:100414007E00120531E4F5800DED640960030203EA
:010424009641
:0104250022B4
:04026C008E0F8F1052
:10027000C3E50F648094805013750940E510151094
:100280007002150F6310FF630FFF8003E4F509ACE4
:100290000FAD10EC1201198F148E138D128C11E416
:1002A000FFFE7DC87C40AB14AA13A912A81112004E
:1002B0000E1201528E0F8F10AE0FAF107C277D10E3
:1002C0001201D3743C2FF58274053EF583E493F557
:1002D0000AAE0FAF107C277D101201D37E037FE89A
:1002E000CFCDCFCECCCE1201D3AA06AB07743C2B18
:1002F000F58274053AF583E493F50BAE0FAF107CED
:10030000037DE81201D37E007F64CFCDCFCECCCE6B
:100310001201D3743C2FF58274053EF583E49344B7
:1003200080F50CAE0FAF107C007D641201D37E000F
:100330007F0ACFCDCFCECCCE1201D3743C2FF58225
:1003400074053EF583E493F50DAE0FAF107C007D90
:10035000641201D37E007F0ACFCDCFCECCCE120166
:10036000D3743C2DF58274053CF583E493F50EAF10
:1003700003EF75F00AA4FBAE0FAF107C037DE8120B
:1003800001D37E007F64CFCDCFCECCCE1201D3EB94
:030390002FF5083E
:010393002247
:100426007B647A00C295EB1BAE0270011A4E600B1C
:10043600B2957FC87E0012053180EB7A007B64EBB3
:100446001BAE0270011A4E600BB2957F647E0012DD
:04045600053180EB01
:01045A00227F
:1004C900D291758902E4F58CF58AD2AFD2A9D28C82
:0904D9001204FA12026C020394F1
:03000B000204E20A
:1004E200C0E0C0D0E508C3941B4006B295D290800C
:0804F20002C290D0D0D0E0322C
:10051000D3EF9400EE9400400B7D6EDDFEEF1F7074
:04052000EF1E80EC5E
:0105240022B4
:10048200C2B77C46AF041CEF70FAD2B7FC30B7118A
:100492007F017E001205100CECD3940540EF7F0023
:0304A200227F01B5
:0104A5002234
:0C045B001204827F017E001205107FCC8D
:10046700E4FDC2B7EF1392B77E06AC061EEC70FA36
:0A047700D2B7EFC313FF0DBD08E874
:010481002258
:1004A600E4FDC2B7D2B7A2B7E433C43333335480C2
:1004B600FEEFC3134EFF7E04AC061EEC70FA0DBDB4
:0204C60008E04C
:0104C8002211
:0800030012045B7F4402046754
:0805460012045B7FBE02046792
:1004FA00E4FFFE1200031205461204A6AB0712041B
:05050A00A6EFFEEBFF6F
:01050F0022C9
:10000E00EC4D6011E8497017ED33EC3304600DE4EC
:10001E00FCFFFEFD22E933E8330470F80201BE1244
:10002E00018958046009E4CC248150062850090245
:10003E0001C82840030201C5C0E0EB4A7044B980F4
:10004E0006D0E0FB0201B4EF4E701CBD8008EBFF42
:10005E00EAFEE9FD80EBE98DF0A4FEE5F00200F783
:10006E00E9CDF9EAFEEBFFEF89F0A4FCE5F0CE89CD
:10007E00F0A42EFFE435F0CD89F0A42DFEE435F08A
:10008E008067EF4E7005BD80D780C3EF8BF0A4ACB8
:10009E00F0EE8BF0A42CFCE435F0F8EF8AF0A42CF3
:1000AE00E5F038FCE433CB8DF0A42CFCE5F03BF806
:1000BE00EE8AF0A42CFCE5F038F8E433CF89F0A4F6
:1000CE002CFCE5F038CF3400CE89F0A42FFFE5F0FC
:1000DE003EFEE433C98DF0A42EFEE5F039CD8AF054
:1000EE00A42FFFE5F03EFEE43DFD33D0E0FB5007CC
:1000FE000BBB000F0201C8EC2CFCEF33FFEE33FEFE
:06010E00ED33FD0201A02B
:1001140075F020800E75F010800575F0087D007E66
:10012400007F003392D530D503120209EC3340101E
:10013400EF33FFEE33FEED33FDEC33FCD5F0ED226F
:0E014400E5F0247EA2D513CC92E7CDCEFF22AB
:10015200EDD2E7CD33EC3392D524814006E4FFFEA5
:10016200FDFC22FCE4CFCECDCC24E0501174FF8004
:10017200EDC3CC13CCCD13CDCE13CECF13CF0470A1
:07018200F030D5DE02020996
:10018900E9D2E7C933E833F892D5EDD2E7CD33ECBC
:0701990033FC5002B2D52235
:1001A000EC30E7100FBF000C0EBE00080DBD0004C0
:1001B0000BEB6014A2D5EB13FCED92E7FD2274FF6C
:1001C000FCFDFEFF22E480F8A2D574FF13FC7D80C5
:0301D000E480EFD9
:03000000020525D1
:0C052500787FE4F6D8FD7581140204C94B
:1001D300C2D5EC30E709B2D5E4C39DFDE49CFCEE47
:1001E30030E715B2D5E4C39FFFE49EFE120217C3A6
:1001F300E49DFDE49CFC800312021730D507C3E4A1
:060203009FFFE49EFE22B5
:0E020900C3E49FFFE49EFEE49DFDE49CFC2206
:10021700BC000BBE0029EF8DF084FFADF022E4CCCB
:10022700F875F008EF2FFFEE33FEEC33FCEE9DEC94
:10023700984005FCEE9DFE0FD5F0E9E4CEFD22EDDA
:10024700F8F5F0EE8420D21CFEADF075F008EF2F24
:10025700FFED33FD4007985006D5F0F222C398FD15
:050267000FD5F0EA22B2
:00000001FF
